{
  "contractName": "hersafe",
  "abi": [
    {
      "anonymous": false,
      "inputs": [
        {
          "indexed": true,
          "internalType": "address",
          "name": "user",
          "type": "address"
        },
        {
          "indexed": false,
          "internalType": "string",
          "name": "ipfsHash",
          "type": "string"
        },
        {
          "indexed": false,
          "internalType": "uint256",
          "name": "timestamp",
          "type": "uint256"
        }
      ],
      "name": "VideoStored",
      "type": "event"
    },
    {
      "constant": true,
      "inputs": [],
      "name": "totalVideosStored",
      "outputs": [
        {
          "internalType": "uint256",
          "name": "",
          "type": "uint256"
        }
      ],
      "payable": false,
      "stateMutability": "view",
      "type": "function"
    },
    {
      "constant": false,
      "inputs": [
        {
          "internalType": "string",
          "name": "_ipfsHash",
          "type": "string"
        },
        {
          "internalType": "uint256",
          "name": "_timestamp",
          "type": "uint256"
        }
      ],
      "name": "storeVideo",
      "outputs": [],
      "payable": false,
      "stateMutability": "nonpayable",
      "type": "function"
    },
    {
      "constant": true,
      "inputs": [],
      "name": "getMyVideos",
      "outputs": [
        {
          "components": [
            {
              "internalType": "string",
              "name": "ipfsHash",
              "type": "string"
            },
            {
              "internalType": "uint256",
              "name": "timestamp",
              "type": "uint256"
            }
          ],
          "internalType": "struct hersafe.Video[]",
          "name": "",
          "type": "tuple[]"
        }
      ],
      "payable": false,
      "stateMutability": "view",
      "type": "function"
    },
    {
      "constant": true,
      "inputs": [
        {
          "internalType": "address",
          "name": "_user",
          "type": "address"
        }
      ],
      "name": "getUserVideoCount",
      "outputs": [
        {
          "internalType": "uint256",
          "name": "",
          "type": "uint256"
        }
      ],
      "payable": false,
      "stateMutability": "view",
      "type": "function"
    },
    {
      "constant": true,
      "inputs": [],
      "name": "getMyMostRecentVideo",
      "outputs": [
        {
          "components": [
            {
              "internalType": "string",
              "name": "ipfsHash",
              "type": "string"
            },
            {
              "internalType": "uint256",
              "name": "timestamp",
              "type": "uint256"
            }
          ],
          "internalType": "struct hersafe.Video",
          "name": "",
          "type": "tuple"
        }
      ],
      "payable": false,
      "stateMutability": "view",
      "type": "function"
    },
    {
      "constant": true,
      "inputs": [
        {
          "internalType": "string",
          "name": "_ipfsHash",
          "type": "string"
        }
      ],
      "name": "videoExists",
      "outputs": [
        {
          "internalType": "bool",
          "name": "",
          "type": "bool"
        }
      ],
      "payable": false,
      "stateMutability": "view",
      "type": "function"
    }
  ],
  "bytecode": "0x608060405234801561001057600080fd5b50610a2b806100206000396000f3fe608060405234801561001057600080fd5b50600436106100625760003560e01c806320464b2f1461006757806337d81091146100905780633d3687a3146100a55780634088649f146100c55780637b88b3a4146100da578063ecf97ffe146100ef575b600080fd5b61007a6100753660046105e9565b6100f7565b604051610087919061088b565b60405180910390f35b6100a361009e36600461061e565b610181565b005b6100b86100b33660046105c3565b610271565b60405161008791906108ea565b6100cd61028c565b60405161008791906108d9565b6100e261039f565b604051610087919061087a565b6100b861049b565b6000805b3360009081526020819052604090205481101561017657825160208085019190912033600090815291829052604090912080548390811061013857fe5b9060005260206000209060020201600001604051610156919061086e565b6040518091039020141561016e57600191505061017c565b6001016100fb565b50600090505b919050565b60008251116101ab5760405162461bcd60e51b81526004016101a2906108c9565b60405180910390fd5b600081116101cb5760405162461bcd60e51b81526004016101a2906108b9565b33600090815260208181526040808320815180830190925285825281830185905280546001810180835591855293839020825180519295939460029094029091019261021c928492909101906104a1565b50602091909101516001918201558054810190555060405133907fc204df74c63f75bbdf0f0afa155f7dfcfbf1ec7b0f069eaaf8ed579c32ab943f906102659085908590610899565b60405180910390a25050565b6001600160a01b031660009081526020819052604090205490565b61029461051f565b336000908152602081905260409020546102ca57506040805160608101825260009181018281528152602081019190915261039c565b336000908152602081905260409020805460001981019081106102e957fe5b60009182526020918290206040805160029384029092018054600181161561010002600019011693909304601f810185900490940282016060908101825290820184815291938492918491908401828280156103865780601f1061035b57610100808354040283529160200191610386565b820191906000526020600020905b81548152906001019060200180831161036957829003601f168201915b5050505050815260200160018201548152505090505b90565b33600090815260208181526040808320805482518185028101850190935280835260609492939192909184015b828210156104925760008481526020908190206040805160028681029093018054600181161561010002600019011693909304601f8101859004909402810160609081018352918101848152909384928491908401828280156104705780601f1061044557610100808354040283529160200191610470565b820191906000526020600020905b81548152906001019060200180831161045357829003601f168201915b50505050508152602001600182015481525050815260200190600101906103cc565b50505050905090565b60015481565b828054600181600116156101000203166002900490600052602060002090601f016020900481019282601f106104e257805160ff191683800117855561050f565b8280016001018555821561050f579182015b8281111561050f5782518255916020019190600101906104f4565b5061051b929150610539565b5090565b604051806040016040528060608152602001600081525090565b61039c91905b8082111561051b576000815560010161053f565b803561055e816109c8565b92915050565b600082601f83011261057557600080fd5b81356105886105838261091f565b6108f8565b915080825260208301602083018583830111156105a457600080fd5b6105af838284610982565b50505092915050565b803561055e816109df565b6000602082840312156105d557600080fd5b60006105e18484610553565b949350505050565b6000602082840312156105fb57600080fd5b813567ffffffffffffffff81111561061257600080fd5b6105e184828501610564565b6000806040838503121561063157600080fd5b823567ffffffffffffffff81111561064857600080fd5b61065485828601610564565b9250506020610665858286016105b8565b9150509250929050565b600061067b8383610830565b9392505050565b600061068d82610959565b610697818561095d565b9350836020820285016106a985610947565b8060005b858110156106e357848403895281516106c6858261066f565b94506106d183610947565b60209a909a01999250506001016106ad565b5091979650505050505050565b6106f981610971565b82525050565b60008154600181166000811461071c576001811461073f5761077e565b607f600283041661072d818761017c565b60ff198416815295508501925061077e565b6002820461074d818761017c565b95506107588561094d565b60005b828110156107775781548882015260019091019060200161075b565b5050850192505b505092915050565b600061079182610959565b61079b818561095d565b93506107ab81856020860161098e565b6107b4816109be565b9093019392505050565b60006107cb60178361095d565b7f54696d657374616d70206d7573742062652076616c6964000000000000000000815260200192915050565b600061080460198361095d565b7f4950465320686173682063616e6e6f7420626520656d70747900000000000000815260200192915050565b80516040808452600091908401906108488282610786565b915050602083015161085d6020860182610865565b509392505050565b6106f98161039c565b600061067b82846106ff565b6020808252810161067b8184610682565b6020810161055e82846106f0565b604080825281016108aa8185610786565b905061067b6020830184610865565b6020808252810161055e816107be565b6020808252810161055e816107f7565b6020808252810161067b8184610830565b6020810161055e8284610865565b60405181810167ffffffffffffffff8111828210171561091757600080fd5b604052919050565b600067ffffffffffffffff82111561093657600080fd5b506020601f91909101601f19160190565b60200190565b60009081526020902090565b5190565b90815260200190565b600061055e82610976565b151590565b6001600160a01b031690565b82818337506000910152565b60005b838110156109a9578181015183820152602001610991565b838111156109b8576000848401525b50505050565b601f01601f191690565b6109d181610966565b81146109dc57600080fd5b50565b6109d18161039c56fea365627a7a723158202cba1819cd3481fe83ee207a360b65534b976a7cbc9c54a22bdfaa412618fab56c6578706572696d656e74616cf564736f6c63430005100040",
  "source": "\n\npragma solidity >=0.4.22 <0.9.0;\npragma experimental ABIEncoderV2;\n\ncontract hersafe {\n   \n    event VideoStored(address indexed user, string ipfsHash, uint256 timestamp);\n    \n   \n    struct Video {\n        string ipfsHash;\n        uint256 timestamp;\n    }\n    \n    \n    mapping(address => Video[]) private userVideos;\n    \n   \n    uint256 public totalVideosStored;\n    \n    /**\n     * @dev Store a video's IPFS hash and timestamp\n     * @param _ipfsHash The IPFS hash of the video\n     * @param _timestamp The timestamp when the video was recorded\n     */\n    function storeVideo(string memory _ipfsHash, uint256 _timestamp) public {\n        require(bytes(_ipfsHash).length > 0, \"IPFS hash cannot be empty\");\n        require(_timestamp > 0, \"Timestamp must be valid\");\n        \n        userVideos[msg.sender].push(Video(_ipfsHash, _timestamp));\n        totalVideosStored++;\n        \n        emit VideoStored(msg.sender, _ipfsHash, _timestamp);\n    }\n    \n    /**\n     * @dev Get all videos stored by the caller\n     * @return Array of Video structs\n     */\n    function getMyVideos() public view returns (Video[] memory) {\n        return userVideos[msg.sender];\n    }\n    \n    /**\n     * @dev Get the number of videos stored by a specific user\n     * @param _user The address of the user\n     * @return Number of videos stored\n     */\n    function getUserVideoCount(address _user) public view returns (uint256) {\n        return userVideos[_user].length;\n    }\n    \n    /**\n     * @dev Get the most recent video stored by the caller\n     * @return The most recent Video struct or an empty struct if no videos\n     */\n    function getMyMostRecentVideo() public view returns (Video memory) {\n        if (userVideos[msg.sender].length == 0) {\n            return Video(\"\", 0);\n        }\n        \n        return userVideos[msg.sender][userVideos[msg.sender].length - 1];\n    }\n    \n    /**\n     * @dev Check if a video with a specific IPFS hash exists for the caller\n     * @param _ipfsHash The IPFS hash to check\n     * @return True if the video exists, false otherwise\n     */\n    function videoExists(string memory _ipfsHash) public view returns (bool) {\n        for (uint i = 0; i < userVideos[msg.sender].length; i++) {\n            if (keccak256(bytes(userVideos[msg.sender][i].ipfsHash)) == keccak256(bytes(_ipfsHash))) {\n                return true;\n            }\n        }\n        return false;\n    }\n}\n",
  "sourcePath": "C:\\Users\\HP\\Desktop\\hersdafeweb\\HerSafe-Website\\contracts\\hersafe.sol",
  "compiler": {
    "name": "solc",
    "version": "0.5.16+commit.9c3226ce.Emscripten.clang"
  },
  "schemaVersion": "3.4.16",
  "updatedAt": "2025-04-11T13:26:31.933Z",
  "networkType": "ethereum",
  "devdoc": {
    "methods": {
      "getMyMostRecentVideo()": {
        "details": "Get the most recent video stored by the caller",
        "return": "The most recent Video struct or an empty struct if no videos"
      },
      "getMyVideos()": {
        "details": "Get all videos stored by the caller",
        "return": "Array of Video structs"
      },
      "getUserVideoCount(address)": {
        "details": "Get the number of videos stored by a specific user",
        "params": {
          "_user": "The address of the user"
        },
        "return": "Number of videos stored"
      },
      "storeVideo(string,uint256)": {
        "details": "Store a video's IPFS hash and timestamp",
        "params": {
          "_ipfsHash": "The IPFS hash of the video",
          "_timestamp": "The timestamp when the video was recorded"
        }
      },
      "videoExists(string)": {
        "details": "Check if a video with a specific IPFS hash exists for the caller",
        "params": {
          "_ipfsHash": "The IPFS hash to check"
        },
        "return": "True if the video exists, false otherwise"
      }
    }
  },
  "userdoc": {
    "methods": {}
  }
}